{
  "_format": "hh-sol-artifact-1",
  "contractName": "BNBLaunchPadFactory",
  "sourceName": "contracts/factories/launchpad_factories/BNBLaunchPadFactory.sol",
  "abi": [
    {
      "inputs": [
        {
          "internalType": "address",
          "name": "implementation_",
          "type": "address"
        }
      ],
      "stateMutability": "nonpayable",
      "type": "constructor"
    },
    {
      "anonymous": false,
      "inputs": [
        {
          "indexed": true,
          "internalType": "address",
          "name": "previousOwner",
          "type": "address"
        },
        {
          "indexed": true,
          "internalType": "address",
          "name": "newOwner",
          "type": "address"
        }
      ],
      "name": "OwnershipTransferred",
      "type": "event"
    },
    {
      "anonymous": false,
      "inputs": [
        {
          "indexed": true,
          "internalType": "address",
          "name": "owner",
          "type": "address"
        },
        {
          "indexed": false,
          "internalType": "address",
          "name": "presaleAddress",
          "type": "address"
        }
      ],
      "name": "presaleCreated",
      "type": "event"
    },
    {
      "inputs": [
        {
          "internalType": "uint256",
          "name": "_saleStartTime",
          "type": "uint256"
        },
        {
          "internalType": "uint256",
          "name": "_saleEndTime",
          "type": "uint256"
        },
        {
          "internalType": "uint256",
          "name": "_minBuyPerUser",
          "type": "uint256"
        },
        {
          "internalType": "uint256",
          "name": "_maxBuyPerUser",
          "type": "uint256"
        },
        {
          "internalType": "address",
          "name": "tokenOnSale",
          "type": "address"
        },
        {
          "internalType": "uint256",
          "name": "hardCap",
          "type": "uint256"
        },
        {
          "internalType": "uint256",
          "name": "softCap",
          "type": "uint256"
        },
        {
          "internalType": "uint256",
          "name": "presaleRate",
          "type": "uint256"
        },
        {
          "internalType": "uint256",
          "name": "listingRate",
          "type": "uint256"
        },
        {
          "internalType": "uint256",
          "name": "liquidityPercent",
          "type": "uint256"
        },
        {
          "internalType": "uint256",
          "name": "_BNBFee",
          "type": "uint256"
        },
        {
          "internalType": "uint256",
          "name": "refundType",
          "type": "uint256"
        }
      ],
      "name": "create",
      "outputs": [],
      "stateMutability": "payable",
      "type": "function"
    },
    {
      "inputs": [],
      "name": "feeTo",
      "outputs": [
        {
          "internalType": "address",
          "name": "",
          "type": "address"
        }
      ],
      "stateMutability": "view",
      "type": "function"
    },
    {
      "inputs": [],
      "name": "flatFee",
      "outputs": [
        {
          "internalType": "uint256",
          "name": "",
          "type": "uint256"
        }
      ],
      "stateMutability": "view",
      "type": "function"
    },
    {
      "inputs": [],
      "name": "implementation",
      "outputs": [
        {
          "internalType": "address",
          "name": "",
          "type": "address"
        }
      ],
      "stateMutability": "view",
      "type": "function"
    },
    {
      "inputs": [],
      "name": "owner",
      "outputs": [
        {
          "internalType": "address",
          "name": "",
          "type": "address"
        }
      ],
      "stateMutability": "view",
      "type": "function"
    },
    {
      "inputs": [],
      "name": "renounceOwnership",
      "outputs": [],
      "stateMutability": "nonpayable",
      "type": "function"
    },
    {
      "inputs": [
        {
          "internalType": "address",
          "name": "feeReceivingAddress",
          "type": "address"
        }
      ],
      "name": "setFeeTo",
      "outputs": [],
      "stateMutability": "nonpayable",
      "type": "function"
    },
    {
      "inputs": [
        {
          "internalType": "uint256",
          "name": "fee",
          "type": "uint256"
        }
      ],
      "name": "setFlatFee",
      "outputs": [],
      "stateMutability": "nonpayable",
      "type": "function"
    },
    {
      "inputs": [
        {
          "internalType": "address",
          "name": "implementation_",
          "type": "address"
        }
      ],
      "name": "setImplementation",
      "outputs": [],
      "stateMutability": "nonpayable",
      "type": "function"
    },
    {
      "inputs": [
        {
          "internalType": "address",
          "name": "newOwner",
          "type": "address"
        }
      ],
      "name": "transferOwnership",
      "outputs": [],
      "stateMutability": "nonpayable",
      "type": "function"
    }
  ],
  "bytecode": "0x608060405234801561001057600080fd5b5060405161107e38038061107e83398101604081905261002f916100c8565b8061003933610078565b60018055600280546001600160a01b039092166001600160a01b03199283161790556003805490911633179055506706f05b59d3b200006004556100f8565b600080546001600160a01b038381166001600160a01b0319831681178455604051919092169283917f8be0079c531659141344cd1fd0a4f28419497f9722a3daafe3b4186f6b6457e09190a35050565b6000602082840312156100da57600080fd5b81516001600160a01b03811681146100f157600080fd5b9392505050565b610f77806101076000396000f3fe6080604052600436106100915760003560e01c806397f3d2cc1161005957806397f3d2cc14610148578063d784d4261461015b578063d9eb59471461017b578063f2fde38b1461019f578063f46901ed146101bf57600080fd5b8063017e7e581461009657806323fa495a146100d35780635c60da1b146100f5578063715018a6146101155780638da5cb5b1461012a575b600080fd5b3480156100a257600080fd5b506003546100b6906001600160a01b031681565b6040516001600160a01b0390911681526020015b60405180910390f35b3480156100df57600080fd5b506100f36100ee366004610d68565b6101df565b005b34801561010157600080fd5b506002546100b6906001600160a01b031681565b34801561012157600080fd5b506100f3610217565b34801561013657600080fd5b506000546001600160a01b03166100b6565b6100f3610156366004610d81565b61024d565b34801561016757600080fd5b506100f3610176366004610d2b565b610573565b34801561018757600080fd5b5061019160045481565b6040519081526020016100ca565b3480156101ab57600080fd5b506100f36101ba366004610d2b565b6105bf565b3480156101cb57600080fd5b506100f36101da366004610d2b565b61065a565b6000546001600160a01b031633146102125760405162461bcd60e51b815260040161020990610e5a565b60405180910390fd5b600455565b6000546001600160a01b031633146102415760405162461bcd60e51b815260040161020990610e5a565b61024b60006106a6565b565b60045434101561028a5760405162461bcd60e51b8152602060048201526008602482015267466c61742066656560c01b6044820152606401610209565b600260015414156102dd5760405162461bcd60e51b815260206004820152601f60248201527f5265656e7472616e637947756172643a207265656e7472616e742063616c6c006044820152606401610209565b60026001556102ea6106f6565b6000806102fa848a89898961071f565b915091508d6005600001819055508c6005600101819055508b6005600201819055508a60056003018190555089600560040160006101000a8154816001600160a01b0302191690836001600160a01b0316021790555088600580018190555087600560060181905550866005600701819055508560056008018190555084600560090181905550836005600a0181905550826005600b01819055506103c8600454600360009054906101000a90046001600160a01b03166001600160a01b031661089590919063ffffffff16565b6002546000906103e0906001600160a01b03166109b3565b60035460405163408fc8a960e01b81523360048201526024810186905260055460448201526006546064820152600754608482015260085460a48201526009546001600160a01b0390811660c4830152600a5460e4830152600b54610104830152600c54610124830152600d54610144830152600e54610164830152600f546101848301526010546101a48301526101c482018690529182166101e482015291925082169063408fc8a99061020401600060405180830381600087803b1580156104a957600080fd5b505af11580156104bd573d6000803e3d6000fd5b505050506104cd338c8386610a50565b806001600160a01b03166394bf96ac6040518163ffffffff1660e01b8152600401600060405180830381600087803b15801561050857600080fd5b505af115801561051c573d6000803e3d6000fd5b50506040516001600160a01b03841681523392507f6d4094e1271ad24183ff32552b1cd3822e57a80177a25e2941ab2fa226172e0b915060200160405180910390a250506001805550505050505050505050505050565b6000546001600160a01b0316331461059d5760405162461bcd60e51b815260040161020990610e5a565b600280546001600160a01b0319166001600160a01b0392909216919091179055565b6000546001600160a01b031633146105e95760405162461bcd60e51b815260040161020990610e5a565b6001600160a01b03811661064e5760405162461bcd60e51b815260206004820152602660248201527f4f776e61626c653a206e6577206f776e657220697320746865207a65726f206160448201526564647265737360d01b6064820152608401610209565b610657816106a6565b50565b6000546001600160a01b031633146106845760405162461bcd60e51b815260040161020990610e5a565b600380546001600160a01b0319166001600160a01b0392909216919091179055565b600080546001600160a01b038381166001600160a01b0319831681178455604051919092169283917f8be0079c531659141344cd1fd0a4f28419497f9722a3daafe3b4186f6b6457e09190a35050565b600061070d60045434610a6b90919063ffffffff16565b90508015610657576106573382610895565b60008086600214806107315750866004145b61077d5760405162461bcd60e51b815260206004820152601c60248201527f424e42466565206d757374206569746865722062652032206f722034000000006044820152606401610209565b86600414156107df5760006107928688610ec9565b905060006127106107a38688610ec9565b6107ae8a6060610ec9565b6107b89190610ec9565b6107c29190610ea7565b905060006107d08284610e8f565b94506000935061088b92505050565b866002141561088b5760006107f48688610ec9565b905060006127106108058688610ec9565b6108108a6062610ec9565b61081a9190610ec9565b6108249190610ea7565b905060006108328284610e8f565b905060006103e861084485600f610ec9565b61084e9190610ea7565b9050826103e861085e8b8d610ec9565b61086a906103f7610ec9565b6108749190610ea7565b61087e9190610e8f565b9550935061088b92505050565b9550959350505050565b804710156108e55760405162461bcd60e51b815260206004820152601d60248201527f416464726573733a20696e73756666696369656e742062616c616e63650000006044820152606401610209565b6000826001600160a01b03168260405160006040518083038185875af1925050503d8060008114610932576040519150601f19603f3d011682016040523d82523d6000602084013e610937565b606091505b50509050806109ae5760405162461bcd60e51b815260206004820152603a60248201527f416464726573733a20756e61626c6520746f2073656e642076616c75652c207260448201527f6563697069656e74206d617920686176652072657665727465640000000000006064820152608401610209565b505050565b6000604051733d602d80600a3d3981f3363d3d373d3d3d363d7360601b81528260601b60148201526e5af43d82803e903d91602b57fd5bf360881b60288201526037816000f09150506001600160a01b038116610a4b5760405162461bcd60e51b8152602060048201526016602482015275115490cc4c4d8dce8818dc99585d194819985a5b195960521b6044820152606401610209565b919050565b610a656001600160a01b038416858484610a7e565b50505050565b6000610a778284610ee8565b9392505050565b604080516001600160a01b038581166024830152848116604483015260648083018590528351808403909101815260849092018352602080830180516001600160e01b03166323b872dd60e01b17905283518085019094528084527f5361666545524332303a206c6f772d6c6576656c2063616c6c206661696c656490840152610a6592879291600091610b16918516908490610b93565b8051909150156109ae5780806020019051810190610b349190610d46565b6109ae5760405162461bcd60e51b815260206004820152602a60248201527f5361666545524332303a204552433230206f7065726174696f6e20646964206e6044820152691bdd081cdd58d8d9595960b21b6064820152608401610209565b6060610ba28484600085610baa565b949350505050565b606082471015610c0b5760405162461bcd60e51b815260206004820152602660248201527f416464726573733a20696e73756666696369656e742062616c616e636520666f6044820152651c8818d85b1b60d21b6064820152608401610209565b6001600160a01b0385163b610c625760405162461bcd60e51b815260206004820152601d60248201527f416464726573733a2063616c6c20746f206e6f6e2d636f6e74726163740000006044820152606401610209565b600080866001600160a01b03168587604051610c7e9190610e0b565b60006040518083038185875af1925050503d8060008114610cbb576040519150601f19603f3d011682016040523d82523d6000602084013e610cc0565b606091505b5091509150610cd0828286610cdb565b979650505050505050565b60608315610cea575081610a77565b825115610cfa5782518084602001fd5b8160405162461bcd60e51b81526004016102099190610e27565b80356001600160a01b0381168114610a4b57600080fd5b600060208284031215610d3d57600080fd5b610a7782610d14565b600060208284031215610d5857600080fd5b81518015158114610a7757600080fd5b600060208284031215610d7a57600080fd5b5035919050565b6000806000806000806000806000806000806101808d8f031215610da457600080fd5b8c359b5060208d01359a5060408d0135995060608d01359850610dc960808e01610d14565b9b9e9a9d50989b979a9960a0890135995060c08901359860e0810135985061010081013597506101208101359650610140810135955061016001359350915050565b60008251610e1d818460208701610eff565b9190910192915050565b6020815260008251806020840152610e46816040850160208701610eff565b601f01601f19169190910160400192915050565b6020808252818101527f4f776e61626c653a2063616c6c6572206973206e6f7420746865206f776e6572604082015260600190565b60008219821115610ea257610ea2610f2b565b500190565b600082610ec457634e487b7160e01b600052601260045260246000fd5b500490565b6000816000190483118215151615610ee357610ee3610f2b565b500290565b600082821015610efa57610efa610f2b565b500390565b60005b83811015610f1a578181015183820152602001610f02565b83811115610a655750506000910152565b634e487b7160e01b600052601160045260246000fdfea2646970667358221220edd9e7a000916400ab7800e39fbb025997954e93faf294813dab86adf0d0f56664736f6c63430008070033",
  "linkReferences": {},
  "deployedLinkReferences": {}
}