{
    "_format": "hh-sol-artifact-1",
    "contractName": "StandardTokenFactory",
    "sourceName": "contracts/factories/token/StandardTokenFactory.sol",
    "abi": [
        {
            "inputs": [
                {
                    "internalType": "address",
                    "name": "factoryManager_",
                    "type": "address"
                },
                {
                    "internalType": "address",
                    "name": "implementation_",
                    "type": "address"
                }
            ],
            "stateMutability": "nonpayable",
            "type": "constructor"
        },
        {
            "anonymous": false,
            "inputs": [
                {
                    "indexed": true,
                    "internalType": "address",
                    "name": "previousOwner",
                    "type": "address"
                },
                {
                    "indexed": true,
                    "internalType": "address",
                    "name": "newOwner",
                    "type": "address"
                }
            ],
            "name": "OwnershipTransferred",
            "type": "event"
        },
        {
            "anonymous": false,
            "inputs": [
                {
                    "indexed": true,
                    "internalType": "address",
                    "name": "owner",
                    "type": "address"
                },
                {
                    "indexed": true,
                    "internalType": "address",
                    "name": "token",
                    "type": "address"
                },
                {
                    "indexed": false,
                    "internalType": "uint8",
                    "name": "tokenType",
                    "type": "uint8"
                }
            ],
            "name": "TokenCreated",
            "type": "event"
        },
        {
            "inputs": [
                {
                    "internalType": "string",
                    "name": "name",
                    "type": "string"
                },
                {
                    "internalType": "string",
                    "name": "symbol",
                    "type": "string"
                },
                {
                    "internalType": "uint8",
                    "name": "decimals",
                    "type": "uint8"
                },
                {
                    "internalType": "uint256",
                    "name": "totalSupply",
                    "type": "uint256"
                }
            ],
            "name": "create",
            "outputs": [
                {
                    "internalType": "address",
                    "name": "token",
                    "type": "address"
                }
            ],
            "stateMutability": "payable",
            "type": "function"
        },
        {
            "inputs": [],
            "name": "factoryManager",
            "outputs": [
                {
                    "internalType": "address",
                    "name": "",
                    "type": "address"
                }
            ],
            "stateMutability": "view",
            "type": "function"
        },
        {
            "inputs": [],
            "name": "feeTo",
            "outputs": [
                {
                    "internalType": "address",
                    "name": "",
                    "type": "address"
                }
            ],
            "stateMutability": "view",
            "type": "function"
        },
        {
            "inputs": [],
            "name": "flatFee",
            "outputs": [
                {
                    "internalType": "uint256",
                    "name": "",
                    "type": "uint256"
                }
            ],
            "stateMutability": "view",
            "type": "function"
        },
        {
            "inputs": [],
            "name": "implementation",
            "outputs": [
                {
                    "internalType": "address",
                    "name": "",
                    "type": "address"
                }
            ],
            "stateMutability": "view",
            "type": "function"
        },
        {
            "inputs": [],
            "name": "owner",
            "outputs": [
                {
                    "internalType": "address",
                    "name": "",
                    "type": "address"
                }
            ],
            "stateMutability": "view",
            "type": "function"
        },
        {
            "inputs": [],
            "name": "renounceOwnership",
            "outputs": [],
            "stateMutability": "nonpayable",
            "type": "function"
        },
        {
            "inputs": [
                {
                    "internalType": "address",
                    "name": "feeReceivingAddress",
                    "type": "address"
                }
            ],
            "name": "setFeeTo",
            "outputs": [],
            "stateMutability": "nonpayable",
            "type": "function"
        },
        {
            "inputs": [
                {
                    "internalType": "uint256",
                    "name": "fee",
                    "type": "uint256"
                }
            ],
            "name": "setFlatFee",
            "outputs": [],
            "stateMutability": "nonpayable",
            "type": "function"
        },
        {
            "inputs": [
                {
                    "internalType": "address",
                    "name": "implementation_",
                    "type": "address"
                }
            ],
            "name": "setImplementation",
            "outputs": [],
            "stateMutability": "nonpayable",
            "type": "function"
        },
        {
            "inputs": [
                {
                    "internalType": "address",
                    "name": "newOwner",
                    "type": "address"
                }
            ],
            "name": "transferOwnership",
            "outputs": [],
            "stateMutability": "nonpayable",
            "type": "function"
        }
    ],
    "bytecode": "0x608060405234801561001057600080fd5b50604051610bb0380380610bb083398101604081905261002f916100f8565b818161003a3361008c565b60018055600280546001600160a01b039384166001600160a01b03199182161790915560038054929093169181169190911790915560048054909116331790555050662386f26fc1000060055561012a565b600080546001600160a01b038381166001600160a01b0319831681178455604051919092169283917f8be0079c531659141344cd1fd0a4f28419497f9722a3daafe3b4186f6b6457e09190a35050565b80516001600160a01b03811681146100f357600080fd5b919050565b6000806040838503121561010a578182fd5b610113836100dc565b9150610121602084016100dc565b90509250929050565b610a77806101396000396000f3fe60806040526004361061009c5760003560e01c8063831e80f211610064578063831e80f2146101555780638da5cb5b14610168578063d784d42614610186578063d9eb5947146101a6578063f2fde38b146101ca578063f46901ed146101ea57600080fd5b8063017e7e58146100a1578063032b5a73146100de57806323fa495a146100fe5780635c60da1b14610120578063715018a614610140575b600080fd5b3480156100ad57600080fd5b506004546100c1906001600160a01b031681565b6040516001600160a01b0390911681526020015b60405180910390f35b3480156100ea57600080fd5b506002546100c1906001600160a01b031681565b34801561010a57600080fd5b5061011e610119366004610922565b61020a565b005b34801561012c57600080fd5b506003546100c1906001600160a01b031681565b34801561014c57600080fd5b5061011e610242565b6100c16101633660046108a2565b610278565b34801561017457600080fd5b506000546001600160a01b03166100c1565b34801561019257600080fd5b5061011e6101a136600461087b565b610409565b3480156101b257600080fd5b506101bc60055481565b6040519081526020016100d5565b3480156101d657600080fd5b5061011e6101e536600461087b565b610455565b3480156101f657600080fd5b5061011e61020536600461087b565b6104f0565b6000546001600160a01b0316331461023d5760405162461bcd60e51b8152600401610234906109d3565b60405180910390fd5b600555565b6000546001600160a01b0316331461026c5760405162461bcd60e51b8152600401610234906109d3565b610276600061053c565b565b60006005543410156102b75760405162461bcd60e51b8152602060048201526008602482015267466c61742066656560c01b6044820152606401610234565b6002600154141561030a5760405162461bcd60e51b815260206004820152601f60248201527f5265656e7472616e637947756172643a207265656e7472616e742063616c6c006044820152606401610234565b600260015561031761058c565b600554600454610332916001600160a01b03909116906105b1565b600354610347906001600160a01b03166106cf565b60405163d72bdc5360e01b81529091506001600160a01b0382169063d72bdc539061037e9033908990899089908990600401610985565b600060405180830381600087803b15801561039857600080fd5b505af11580156103ac573d6000803e3d6000fd5b505050506103bc3382600061076c565b604051600081526001600160a01b0382169033907f49fab9e82f453b3b0e1b0e507a645552d8b351f9b3cb0c9a7b4df572780c6b2f9060200160405180910390a360018055949350505050565b6000546001600160a01b031633146104335760405162461bcd60e51b8152600401610234906109d3565b600380546001600160a01b0319166001600160a01b0392909216919091179055565b6000546001600160a01b0316331461047f5760405162461bcd60e51b8152600401610234906109d3565b6001600160a01b0381166104e45760405162461bcd60e51b815260206004820152602660248201527f4f776e61626c653a206e6577206f776e657220697320746865207a65726f206160448201526564647265737360d01b6064820152608401610234565b6104ed8161053c565b50565b6000546001600160a01b0316331461051a5760405162461bcd60e51b8152600401610234906109d3565b600480546001600160a01b0319166001600160a01b0392909216919091179055565b600080546001600160a01b038381166001600160a01b0319831681178455604051919092169283917f8be0079c531659141344cd1fd0a4f28419497f9722a3daafe3b4186f6b6457e09190a35050565b60006105a3600554346107e190919063ffffffff16565b905080156104ed576104ed33825b804710156106015760405162461bcd60e51b815260206004820152601d60248201527f416464726573733a20696e73756666696369656e742062616c616e63650000006044820152606401610234565b6000826001600160a01b03168260405160006040518083038185875af1925050503d806000811461064e576040519150601f19603f3d011682016040523d82523d6000602084013e610653565b606091505b50509050806106ca5760405162461bcd60e51b815260206004820152603a60248201527f416464726573733a20756e61626c6520746f2073656e642076616c75652c207260448201527f6563697069656e74206d617920686176652072657665727465640000000000006064820152608401610234565b505050565b6000604051733d602d80600a3d3981f3363d3d373d3d3d363d7360601b81528260601b60148201526e5af43d82803e903d91602b57fd5bf360881b60288201526037816000f09150506001600160a01b0381166107675760405162461bcd60e51b8152602060048201526016602482015275115490cc4c4d8dce8818dc99585d194819985a5b195960521b6044820152606401610234565b919050565b60025460405163141106f560e11b81526001600160a01b038581166004830152848116602483015260ff84166044830152909116906328220dea90606401600060405180830381600087803b1580156107c457600080fd5b505af11580156107d8573d6000803e3d6000fd5b50505050505050565b60006107ed8284610a08565b9392505050565b600082601f830112610804578081fd5b813567ffffffffffffffff8082111561081f5761081f610a2b565b604051601f8301601f19908116603f0116810190828211818310171561084757610847610a2b565b8160405283815286602085880101111561085f578485fd5b8360208701602083013792830160200193909352509392505050565b60006020828403121561088c578081fd5b81356001600160a01b03811681146107ed578182fd5b600080600080608085870312156108b7578283fd5b843567ffffffffffffffff808211156108ce578485fd5b6108da888389016107f4565b955060208701359150808211156108ef578485fd5b506108fc878288016107f4565b935050604085013560ff81168114610912578283fd5b9396929550929360600135925050565b600060208284031215610933578081fd5b5035919050565b60008151808452815b8181101561095f57602081850181015186830182015201610943565b818111156109705782602083870101525b50601f01601f19169290920160200192915050565b6001600160a01b038616815260a0602082018190526000906109a99083018761093a565b82810360408401526109bb818761093a565b60ff9590951660608401525050608001529392505050565b6020808252818101527f4f776e61626c653a2063616c6c6572206973206e6f7420746865206f776e6572604082015260600190565b600082821015610a2657634e487b7160e01b81526011600452602481fd5b500390565b634e487b7160e01b600052604160045260246000fdfea264697066735822122037ea92f0b52da44650349b842895c3f2714a231355c4b211b606a3bca890910e64736f6c63430008040033",
    "linkReferences": {},
    "deployedLinkReferences": {}
}